:020000040000fa
:080000000001040000000000f3
:020000040000fa
:04000800f6010000fd
:020000040000fa
:04000c00f6010000f9
:020000040000fa
:04001000f6010000f5
:020000040000fa
:04001400f6010000f1
:020000040000fa
:04001800f6010000ed
:020000040000fa
:04001c00f6010000e9
:020000040000fa
:04002000f6010000e5
:020000040000fa
:04002400f6010000e1
:020000040000fa
:04002800f6010000dd
:020000040000fa
:04002c00f6010000d9
:020000040000fa
:04003000f6010000d5
:020000040000fa
:04003400d8010000ef
:020000040000fa
:04003800f6010000cd
:020000040000fa
:04003c00f6010000c9
:020000040000fa
:04004000f6010000c5
:020000040000fa
:04004400f6010000c1
:020000040000fa
:04004800f6010000bd
:020000040000fa
:04004c00f6010000b9
:020000040000fa
:04005000f6010000b5
:020000040000fa
:04005400f6010000b1
:020000040000fa
:04005800f6010000ad
:020000040000fa
:04005c00f6010000a9
:020000040000fa
:04006000f6010000a5
:020000040000fa
:04006400f6010000a1
:020000040000fa
:04006800f60100009d
:020000040000fa
:04006c00f601000099
:020000040000fa
:04007000f601000095
:020000040000fa
:04007400f601000091
:020000040000fa
:04007800f60100008d
:020000040000fa
:04007c00f601000089
:020000040000fa
:04008000f601000085
:020000040000fa
:04008400f601000081
:020000040000fa
:04008800f60100007d
:020000040000fa
:04008c00f601000079
:020000040000fa
:04009000f601000075
:020000040000fa
:04009400f601000071
:020000040000fa
:04009800f60100006d
:020000040000fa
:04009c00f601000069
:020000040000fa
:0400a000f601000065
:020000040000fa
:0400a400f601000061
:020000040000fa
:0400a800f60100005d
:020000040000fa
:0400ac00f601000059
:020000040000fa
:0400b000f601000055
:020000040000fa
:0400b400f601000051
:020000040000fa
:0400b800f60100004d
:020000040000fa
:0400bc00f601000049
:020000040000fa
:0400c000f601000045
:020000040000fa
:0400c400f601000041
:020000040000fa
:0400c800f60100003d
:020000040000fa
:0400cc00f601000039
:020000040000fa
:0400d000f601000035
:020000040000fa
:0400d400f601000031
:020000040000fa
:0400d800f60100002d
:020000040000fa
:04010800f6010000fc
:020000040000fa
:04010c00f6010000f8
:020000040000fa
:04011000f6010000f4
:020000040000fa
:04011400f6010000f0
:020000040000fa
:04011800f6010000ec
:020000040000fa
:04011c00f6010000e8
:020000040000fa
:04012000f6010000e4
:020000040000fa
:04012400f6010000e0
:020000040000fa
:04012800f6010000dc
:020000040000fa
:04012c00f6010000d8
:020000040000fa
:04013000f6010000d4
:020000040000fa
:04013400f6010000d0
:020000040000fa
:04013800f6010000cc
:020000040000fa
:04013c00f6010000c8
:020000040000fa
:04014000f6010000c4
:020000040000fa
:04014400f6010000c0
:020000040000fa
:04014800f6010000bc
:020000040000fa
:04014c00f6010000b8
:020000040000fa
:04015000f6010000b4
:020000040000fa
:04015400f6010000b0
:020000040000fa
:04015800f6010000ac
:020000040000fa
:04015c00f6010000a8
:020000040000fa
:04016000f6010000a4
:020000040000fa
:04016400f6010000a0
:020000040000fa
:04016800f60100009c
:020000040000fa
:04016c00f601000098
:020000040000fa
:04017000f601000094
:020000040000fa
:04017400f601000090
:020000040000fa
:04017800f60100008c
:020000040000fa
:04017c00f601000088
:020000040000fa
:04018000f601000084
:020000040000fa
:04018400f601000080
:020000040000fa
:04018800f60100007c
:020000040000fa
:04018c00f601000078
:020000040000fa
:04019000f601000074
:020000040000fa
:04019400f601000070
:020000040000fa
:04019800f60100006c
:020000040000fa
:04019c00f601000068
:020000040000fa
:0401a000f601000064
:020000040000fa
:0401a400f601000060
:020000040000fa
:0401a800f60100005c
:020000040000fa
:0401ac00f601000058
:020000040000fa
:0401b000f601000054
:020000040000fa
:0401b400f601000050
:020000040000fa
:0401b800f60100004c
:020000040000fa
:0401bc00f601000048
:020000040000fa
:0401c000f601000044
:020000040000fa
:0401c400f601000040
:020000040000fa
:0401c800f60100003c
:020000040000fa
:0401cc00f601000038
:020000040000fa
:0401d000f601000034
:020000040000fa
:0401d400f601000030
:020000040000fa
:0401d800f60100002c
:020000040000fa
:100200006f8e20000eff20000e018800000000000d
:10021000000020000000e000020032000001200089
:100220002002880014000700e70007000000e0003b
:1002300003003a00a0ea220001002000020037007b
:100240000000200001002000810f7000010032003a
:1002500014000700000020000000e000020032004f
:100260000000020000000000d8170200000000009b
:100270000040da000000fe004440a900403b20009e
:100280000000e0000300320000002000a001880010
:100290004440a800000006008a1f78008b1f7800e9
:1002a0000000060091018800800478000000eb0047
:1002b0001a003700e284440032a0b4009905ba0065
:1002c000e284440032a0b4009906ba00e2844400fb
:1002d00032a0b4000006eb00476fde00fd07b2005d
:1002e000636ce10003003a00ebff07000000eb0045
:1002f0000a003700606ce10004003a00005deb008a
:100300008b05e900fdff3e00040037006168e10055
:10031000010032000086eb000b00070019c7ba008d
:100320001905ba000e04e00003003a000a00e000dc
:10033000e0ff3a0000000600fe07b2009e018800c0
:100340008a047800f5ff3700395dba008b05e900b3
:100350000c003200295dba008b05e900080032006c
:100360000c00e00003003a00e284440032a0b40034
:10037000f5ff370019ddba008b05e900faff3a00f6
:100380008904e800e184440032a0b40000000600c3
:10039000000000000000000000000000000000005d
:1003a000000000000000000000000000000000004d
:1003b0003600f800809fbe00829fbe00849fbe0072
:1003c000869fbe000000fa00111307008460a90098
:1003d0000080fa004f03be004f02be004f01be0076
:1003e0004f00be003600f900004006000040da0071
:1003f0000000fe000a00fa0011002000b1bf9f00bb
:10040000c0bf9f006a805700020607004fb89700e0
:100410000080fa00000006000a00fa00e20f500017
:1004200034003e0010478000e10f5000030032000e
:10043000e20f500011003a000c003700c3202000ea
:100440000300e00001003a000040da000c02e20084
:10045000020035001422ef000de2a8000f42ab00ad
:100460000d003a000f42a8000b0037006321200066
:100470000300e00001003a000040da001602e2004a
:10048000020035001e22ef0017e2a8001942ab005f
:1004900001003a001942a800820178000b003700e1
:1004a0003102fb00e10f500004003a000f22ab00c4
:1004b000feff3a0084108800030037001922ab00c9
:1004c000feff3a00d41088008301e9000300e00039
:1004d000f3ff3a00e10f500003003a000f02ab00b7
:1004e000feff32000b0037001902ab00feff3200a6
:1004f0000800370033002000b3bf9f00c0bf9f003b
:10050000d1bf9f00e2bf9f006a805700c30507006c
:100510006fb99700020078000080fa000000060022
:100520000a00fa0051002000b1bf9f00c0bf9f0029
:100530006a805700bb0507005fb897000080fa008b
:1005400000000600889fbe008004780020478000dd
:100550000000e00004003a000e0007000084eb00f9
:100560000000e00008003500284780000900e00096
:100570000500320009004400060007000000e0000a
:1005800001003d000084eb00080078004f04be002d
:1005900000000600800078000100e00003003a003f
:1005a0000000200020478800000005000080eb00cc
:1005b00002002000828f500002003e002147880088
:1005c0000000eb0000000600000005000001be0076
:1005d0001c0007000470a70003f0a10003f8a300ab
:1005e00013003a006509b10010003200090035001f
:1005f0006928e10002003500010028000000050024
:1006000000004000818048008502e900fcff3a00bc
:1006100000000600f88f4200050035008100d1007f
:100620000080d3008502e800fcff3a0000000600cd
:100630008000eb00000005004f89de008201780099
:1006400049003700c70ade00f107b200f50fb2001b
:1006500008003200e1cf4200020032000170a00029
:1006600024000500810f700001003200040805001d
:1006700044000500810f700002003a0014000500dc
:100680008502e9000000400081c04800fcff3b00fb
:100690000170a00024000500889fbe008a9fbe0054
:1006a0008c1f7800950007009c00330003866c00c7
:1006b0006450e100240032006420e1002700320091
:1006c0006150e100220032006120e100210032008f
:1006d0008b854200eb07b1000134b800003ab80046
:1006e0000804420089844a00013ab8000030b8008a
:1006f0008880400009014a000400330000004000e7
:1007000081804800020149008b05e900c909dd002c
:10071000830170000100320013002000c814de00c5
:100720004814dd004709de001200b200c808de00f0
:10073000088470004b00070001f0a1000cf0a70036
:1007400001f0a0007e0037006120e100800032004f
:100750000801be000200be00f7ff37006150e10053
:10076000fcff3a007a003700881f78000304780005
:100770000300e00007003d0060001000e08018006a
:1007800060011900e081190002003b0001f02d001a
:10079000030037000400070008f0a70001f0a000e4
:1007a0004f04780000000600889fbe008a9fbe00ac
:1007b0000082700004027100048271002600320081
:1007c0000004be000200be006011b8006b092000ea
:1007d000950220000182cf000a0039000541b100d6
:1007e0000082cf00070039000541b1000982cf0027
:1007f000040039000541b1000882cf000100390032
:100800000541b10005425200120032000a003b00cf
:1008100082817100610164008100d1000080d300f9
:100820008984d3000884d3008b05e8000442e800e3
:10083000f7ff3a00070037000804440089844c00a1
:1008400000004800818048008b05e9000442e9006f
:10085000f9ff3a00030007004f05be004f04be0039
:100860000000060081002000618055000b003d0063
:100870000b00200061fe2f000100e1001d0034008c
:1008800082817100610164008904d1000884d30071
:100890000000e800faff3a007100200061006400e7
:1008a000030070000200600009003200610444008f
:1008b000e0844c000988a500050032008b05e800a3
:1008c0006808e10002003a008904d1000884d300de
:1008d000f20f20000258e10005003d00c75ddd0079
:1008e000f907b20089807500080078000000060052
:1008f0000bf827008b007800000005000004be0004
:1009000050ff07000003be000405be000200be0049
:100910004cff0700844f7500000006000200be0077
:100920006450e100050036006420e100020036005a
:100930000968a30001003a000800be000160a000a1
:100940004f0678004f05be004f04be0000000600b1
:10095000f0ff2f00f1ff2700f9ff3700e1832000af
:100960001a003700e1832000a5000700800078000e
:100970000080eb000100e00004003500e18320006e
:10098000a0002000110007004f80de0000000600dc
:100990008001780002003700845978000201e900e4
:1009a0000200e00006003200314278000404e0005a
:1009b000f9ff3a00020037008059eb000201e9001c
:1009c0000200e000fcff3a0000000600889fbe0025
:1009d0008a1f78000004be00c900900069009000e2
:1009e000808f500005003900090078004d01070094
:1009f0008080eb000000e00016003500084578001c
:100a00004900900008587800c00498001900780048
:100a100000b8a30004003a0000a8a30007003200b9
:100a2000ea4f540005003a00090078003900070039
:100a30008080eb000000e00006003a0000c02000cb
:100a4000190060000200320049009000e0049800a4
:100a50008a80fb00010078004f0578004f04be003b
:100a600000000600889fbe000004780001007800a6
:100a700082047800880178000901780011002000c4
:100a8000a7000700890f5000010032000004eb00ae
:100a9000080078004f04be00000006000000fa00c5
:100aa000e88157004fb99700e183200020532000d0
:100ab000880507000080fa0000000600889fbe003d
:100ac0000004780001007800820478008801780032
:100ad000090178001100200091000700890f5000e3
:100ae000010032000004eb00080078004f04be0053
:100af000000006000000fa00e88157004fb9970097
:100b0000e1832000e0552000720507000080fa0014
:100b100000000600889fbe008a1f7800000478004d
:100b20000800e0000d003a00c8882000700544006d
:100b30008004eb00580078000000e0000400320060
:100b4000f4ff07000000e00001003d008084eb009e
:100b50008a0f5400f7ff3a002500370000002200fa
:100b6000180060008004eb0021003200a80490000f
:100b70000f00370009015100384090000000fb00d1
:100b80008900780024fe07000000e00007003c0018
:100b9000280090004004980060049800500c9800d1
:100ba0001890a0008084eb0011003700808444007e
:100bb00048019000828f5400eeff39002800900019
:100bc000400498009800780002c020000281600074
:100bd00001003a003800900001e8a3000200320052
:100be0006004980001003700500c98008004eb006e
:100bf000090078004f0578004f04be000000060091
:100c0000889fbe008a9fbe0080047800010478009f
:100c10002c003700c800900068009000808f5000c2
:100c20000400390008007800be0007000000e00062
:100c30003700350000402000180060000900320035
:100c4000a100200009007800ac00070080057800b2
:100c50000b00e00003003200618514000a854500a6
:100c600004003700090078009e00070000057800a6
:100c70008005eb0048009000e80090008080500064
:100c80008a8f500002003100010578008005eb00da
:100c90000a017800890078007f0007004800900072
:100ca0000a004000400498000b00e00004003200fd
:100cb0000800780097ff07000000e00014003a00e9
:100cc0008a8444001904e000d2ff3a00008020002a
:100cd0001800600006003200080078008dff070051
:100ce000800078000080eb000100e00009003a007d
:100cf00001c02000988060000000eb000500320079
:100d000048009000600498000000eb0001003700ec
:100d10000080eb004f05be004f04be00000006003f
:100d2000889fbe008a9fbe008c9fbe008e1f7800e9
:100d3000000678000104780002007800830478003f
:100d40000881b900020778000200e000420032008a
:100d50000800e0004100320082057800c9009000e0
:100d600069009000808f500004003900090078006d
:100d70006c0007000000e000290035000040200062
:100d8000190060000a0032000b017800a100200069
:100d90000c00780036000700800678000d00e000a7
:100da00006003200610516000a854600040037007f
:100db0000b0578008006eb00010037000b0578007a
:100dc00049009000e9009000808050008a8f500018
:100dd00002003100010578008006eb000a0178006e
:100de0008c0078002c0007008a855500490090008f
:100df0000a004000c00498000d00e000040032002a
:100e00000900780043ff07000000e00004003a00fa
:100e10000b00e000020032000a064600cfff370058
:100e200000802000190060000200320009007800f4
:100e300038ff070000c020001900600002003200e7
:100e400049009000e00498008b055700110009004c
:100e50008885d800010037000000eb004f077800bc
:100e60004f06be004f05be004f04be000000060046
:100e700003003700b0cf1000050032000201e90086
:100e8000800178000200e000faff3a00000005004f
:100e9000030078000000060080017800020037009f
:100ea000b15978000201e9000200e000fcff3a00bd
:100eb00000000600020037000304e00006003200d4
:100ec0000001780002007800b041780081cf510025
:100ed000f9ff3a00010037000001eb000200780042
:100ee0000000060080007800010178003104e00075
:100ef000fdff3a0000005100000006000001eb0079
:100f000000027800b041780081cf510001003a0022
:100f1000040178000304e000f9ff3a0002007800c1
:100f200000000600889fbe008a1f78000004780039
:100f3000c8009000680190000000eb00828f500014
:100f40003c003900180078002200290002016000ee
:100f5000e20f510007003200012024000000e000f1
:100f600001003d0001202000008c70000080eb009b
:100f7000300037000200260002006000820f50009f
:100f800009003a0038009000808f500006003900b8
:100f900008007800dffe0700800078000080eb008a
:100fa0000100e00023003a001805780000c020008e
:100fb0000000650018003a00a804900060022000bc
:100fc00008004000808f540013003a0000202000e9
:100fd000dc020700200498000000e00005003a0051
:100fe00029049800490498008904e800390498000d
:100ff000080037000a60a0000a0c7800400498003e
:10100000012020008080400031049800400c9800ae
:10101000500c9800f9010700280090005004980037
:10102000380090006004980000002600180c700042
:101030000000eb004f0578004f04be0000000600e2
:10104000fc874700889fbe008a9fbe008c9fbe0021
:101050008e1f78000006780080c5b30080cf500056
:101060000a0032007740400080cf50000a00320072
:101070006940400080cf50000b003200f08a200011
:1010800080bf9f00ae0020000a003700e2892000e8
:1010900082bf9f0006003700f38a200083bf9f00b5
:1010a0008e00200003003700f48a200084bf9f00d8
:1010b0000e0120003c02be002c03be000605be004f
:1010c0000404be0040c6b30080cf500003003200cd
:1010d0006540400080cf50000b003a00e00f520006
:1010e000e08f5a00e00f5b00e08f5b0006003d00e0
:1010f0006000b8006011b8000404500085845800f6
:101100000605590087855900e80f57000400320092
:1011100040002000f00f570038003a00010037006f
:1011200030002000e00f5400e08f5c00e00f5d0015
:10113000e08f5d0004003a00dc0890008d01200083
:101140000100e000060032008e00e90088806000a7
:101150008fba9700e5c07800f1ef9f007d01200075
:10116000800078008100e900050033008b05d10084
:101170000a85d3008984d3000884d300f9ff37009f
:10118000089ebe000a96be00120037008d06e900d8
:101190008e00e900848060000fb99700e2c17800fa
:1011a00082fd2f000f01410003f17e0080007800d6
:1011b0008100e900050033008783d1000683d30056
:1011c0008582d3000482d300f9ff3700049ebe005d
:1011d0000696be003c02be002c03be00e00f52008b
:1011e000e08f5a00e00f5b00e08f5b008b00340063
:1011f0000d00e000e5ff3c00880037002c60900007
:1012000081c6b300814f50000b00320006003c0045
:101210000004e00008003200e6c05000814f50009a
:101220004e003a0004003700c1c6b300814f5000a1
:101230004a003a00210037000800e00004003a00ac
:101240005c0890008d0120000000e00006003200e4
:10125000110009000e84d8000fb99700e2c0780091
:10126000f1ef9f007d012000110009000e84d800dd
:101270000a003700110009000e04d8008d06e900ad
:101280000e81b900020454008fb8970061417c00c0
:1012900081fd2f008f80400082f07e0000047800e6
:1012a0000800e000020032000d00e000f1ff3c0009
:1012b000cfc4de00614db90025003700e00f5400b7
:1012c000e08f5c0004003a005c0890008d01200073
:1012d0000000e000070032006171b9000800be00a4
:1012e000710207008fb99700e3417800f3ef9f0088
:1012f0007d0120006171b9000800be005a0207009c
:101300000b0037006171b9000800be0047020700fa
:101310008d06e90000f1b900020454000fba9700ed
:10132000e4427c0084fd2f000f02420005f27e00a3
:101330000004be00e00f5000e08f580002003200b1
:101340000d00e000efff3c004fcdde008a05780085
:10135000089ebe000a96be0030003700e00f540021
:10136000e08f5c00e00f5d00e08f5d0004003a005c
:101370005c0890008d0120000000e00009003200b0
:101380006172b900612bb9000800be000a01be00fd
:10139000ee0207000fba970064427800f4ef9f0056
:1013a0007d0120006172b900612bb9000800be0008
:1013b0000a01be00de0207000d0037006172b900ad
:1013c000612bb9000800be000a01be00e30207005d
:1013d0008d06e90000f2b900040454008fba9700aa
:1013e00065427c0085fd2f008f82420084f27e00e2
:1013f000009ebe000296be003c04be002c05be004e
:10140000e00f5400e08f5c00e00f5d00e08f5d00b6
:10141000020034000d00e000e8ff3c00e80f570038
:1014200010003a000c1090000038a3000d003200ac
:10143000f78f560006003e0085fd2f008f82420088
:10144000e5c07e0000c3b30080cf5000050032002d
:101450008d06e90002c3b30081fd2f008f8040009c
:1014600082f07e0078811600120e98006c009000c9
:1014700083fd2f008f8141008d80410086fe070093
:101480001c089000dc089000810f500006003d0011
:1014900000805000000e98000c1090000040a10049
:1014a000001698000f0037000100e0000d003d001d
:1014b0008c109000f4806000f08f500009003a001a
:1014c0007c099000fc009000810051000c09900004
:1014d00082805000008050004240a900010034008a
:1014e000000e98004f0778004f06be004f05be0063
:1014f0004f04be00cf01b100000006000400fa0056
:10150000889fbe008a9fbe008c1f78000004780070
:1015100001067800f80d9000780090008085550055
:1015200008089000808555001808900080855500b7
:101530002808900080855500380890008085550067
:1015400048089000808555000002220090bf9f004f
:1015500000032300a0bf9f00081090000028a300f4
:1015600015003a000b00e000130034000b05780072
:101570008a047800e20f550001003600290020009f
:10158000c801900009017800ee80570058009000d3
:1015900003000100500498000000e0008c003200bd
:1015a0006808900009004000600c9800090555008b
:1015b0004240a900eeff3c00780190000200e000ec
:1015c0000c003400c80190008c0078005800900096
:1015d00003000100500498008080eb000000e00050
:1015e0007c003200e8089000780090000080400005
:1015f000600c9800880c90000900e0001100340095
:1016000009057800e28f5400010036002a0020000e
:10161000c80190000a017800ec8057005800900043
:1016200003000100500498000000e0006800320050
:10163000680890000a004000600c98008a845400fa
:10164000edff3700180990000200e0000c003400a4
:10165000c8019000e80090005800900003000100cd
:10166000500498008080eb000000e0005900320038
:10167000e80890001808900000804000600c980076
:10168000a80c90000900e000110034000905780062
:10169000e28f5400010036002a002000c8019000ab
:1016a0000a017800ec805700580090000300010008
:1016b000500498000000e0004500320068089000e7
:1016c0000a004000600c98008a845400edff370047
:1016d000380990000200e0000e003400e80090009d
:1016e0001808900080804000c801900058009000c9
:1016f00003000100500498008080eb000000e0002f
:1017000034003200e8089000380890000080400063
:10171000600c9800c80c90000900e0001100340033
:1017200009057800e28f5400010036002a002000ed
:10173000c80190000a017800ec8057005800900022
:1017400003000100500498000000e0002000320077
:10175000680890000a004000600c98008a845400d9
:10176000edff3700081090008000eb000028a30078
:10177000180032000b00e000160034008b047800e3
:1017800009057800e28f5400010036002a0020008d
:10179000c80190000a017800ee80570058009000c0
:1017a00003000100500498000000e000080032002f
:1017b000680890000a004000600c98008a84540079
:1017c0004240a900eeff3c008000eb000100370022
:1017d0008080eb00010078004f0678004f05be00c6
:1017e0004f04be000080fa000000060001087800e7
:1017f0000000060000ca200061003700881f780042
:10180000e88d20001804e00003003a00f9ff07000b
:1018100020c0b300004c78004f04780000000600a0
:10182000889fbe000004780008007800b9fc07001b
:1018300080047800000420001800600002003200dc
:10184000280090005a0007000000eb0020049800d8
:10185000384090000004e000050035000000fb0067
:10186000e4fa07000000e000010032008084eb0091
:10187000181090000000e0000800320028fb07006c
:101880000000e000010032008084eb00181090009e
:10189000470007000000eb0010149800000820002b
:1018a00018006000150032000001eb006000b80075
:1018b000e38820000202d00063027a00880f520001
:1018c00005003a000000400081804800008041008f
:1018d0000008eb000600370061004000e08048008f
:1018e0000201e800e80f5000e08f5800f0ff3a00d6
:1018f000080078002e0007000e003700000c78006a
:1019000000c0eb0030449800600220000800400056
:10191000200498004004980050049800400c98005f
:1019200060049800500c9800700498007600440001
:10193000000c9800090078004f04be00000006006b
:10194000881f78000004eb006140b800e2ff2f0020
:10195000f3ff2f00d7000700c28920006200780043
:101960000000e00001003200adff07000804e800bd
:10197000e80f5400f4ff3a004f047800000006001e
:10198000010020000100e00008003200010080009a
:101990000100e000050032008100e900010088003c
:1019a0008100d0000200800000b178000000060035
:1019b0000000e0002f003200c0017800e38f5100ea
:1019c0002c0036000308a3002a003a00e1468000fc
:1019d0000100e00002003200810f500004003100dd
:1019e00011009800e0468800160037008200780059
:1019f000110190000200e00002003200800f51004f
:101a0000faff39001102780084824000850f5000ef
:101a100018003900808f520003003a00830842000a
:101a200001007800070037000200e00003003200e8
:101a300083014000830f51000e003900120098000e
:101a400090009800900090000100e0000900320032
:101a500010014000828f500006003a00a28d200045
:101a60000009eb001001780011084100910090007e
:101a70001100980000000600889fbe000004780056
:101a8000d14680000100e000020032000100780031
:101a90000d003700e1468000c08d200004003700b3
:101aa000910f5400250036000180e800910090005d
:101ab0000100e000faff3a0010003700920f5400d6
:101ac0001e0036000280e800100178000200e000ed
:101ad000faff3a0011017800e1468000c08d200035
:101ae00004003700910f5400140036000180e80014
:101af00091009000828f5000faff3a000947800061
:101b0000888f5400010031008804780009007800b3
:101b1000360007000000e00004003a00888f5400ff
:101b2000050032008904d100f5ff3700091878005c
:101b30009fff0700d2ff37000000eb004f04be00fc
:101b400000000600881f7800630440000800a10020
:101b50008000eb00800f540021003600e30f54009a
:101b600001003e004800200008007800c2ff070086
:101b70008000eb000000e0001900320090007800c7
:101b80009101780064815100880f510003003100f9
:101b9000110190000208780007003700088140001a
:101ba000020878009101900013019800100178005c
:101bb0001109140088087800100178000000eb007b
:101bc0000200e00004003200920190000300e000f7
:101bd000010032000280e800d04688008180e800e1
:101be000010078004f0478000000060080007800b3
:101bf0000000eb000100e000050034000100780067
:101c000050fa0700e10f400001003a000000eb002d
:101c10000000060000c0da000000060000c0da0084
:101c20000000060000c0da0000000600839f680084
:101c30000100e00002003d0060001000e08018009c
:101c40000300e00002003d0060011100e081190086
:101c5000050007004f00e00002003b00600010009c
:101c6000e0801800000006006022b8000602200094
:101c70000000d0008180d2000482d2008582d20090
:101c80000000a0000202520083825a0003003100cb
:101c90000202420083824a000000a1000603e9001c
:101ca000f3ff3a0000000600efff07000400be004b
:101cb00000000600020ab900001bb9000200b800cb
:101cc000810042008100430000000600889fbe00a2
:101cd0008a9fbe0030044200b0844a0030054b00a9
:101ce00090854b006000b1000898be000a90be00cd
:101cf0000440e10005c8e10006d0e10007d8e1009a
:101d000002003100680040001008e8004f05be00e6
:101d10004f04be0000000600889fbe008a9fbe00e0
:101d20003004be002005be000418540005985c0075
:101d300006185d0007985d00110020000440e100d6
:101d400005c8e10006d0e10007d8e1000100390034
:101d50008000eb00108810004f05be004f04be004d
:101d6000000006001200fa00889fbe008a9fbe0095
:101d70008c9fbe00e0b79f00f1b79f0082bf9f001d
:101d800093bf9f000605be000404be000000eb00e8
:101d9000d0b79f00c0b79f00b0b79f00a0b79f000b
:101da00090b79f000006eb005fb19700cfb097009f
:101db000820141003fb097000200e00004003d00b6
:101dc000370007007e805700c0ff07000300370080
:101dd000330007007e805700cfff0700dfb6970073
:101de0000d00e0000c0035006fb29700ffb29700c5
:101df0000fbb97009fbb9700100020000100200040
:101e00006011b80000027200818272000203730048
:101e1000838373001b0007000c06e8000104200008
:101e2000810f5600e0ff3a000d00e00004003d0085
:101e30000802be000a03be007e805700a3ff070011
:101e40005fa897000000e00005003a001fb297006d
:101e5000afb297003fb39700cfb3970009000700d8
:101e60006fb09700ffb097000fb997009fb9970028
:101e70004f06be004f05be004f04be000080fa00b2
:101e8000000006000100070000000600a4b79f0044
:101e9000b5b79f00c6b79f00d7b79f0000000600e8
:101ea0004f09de0082817100b3b79f004f01de0051
:101eb0008180400082807000a1b79f008fb09700a2
:101ec0004f09de00000040000200700090b79f0044
:101ed0007fa897004f01de00818040008280700063
:101ee00081b79f000d0007004f3ade000000400060
:101ef00004007000f0af9f000800070004024200d9
:101f000085824a0006034b0087834b00dfff0700f2
:101f10000802be000a03be00000006002fb29700b0
:101f2000bfb297004fb39700dfb3970000000600e1
:101f3000881f780018002000881f780089ff07009c
:101f40008f87e9004f04780000000600801feb0037
:101f500084ff07008f87e90000000600889fbe000d
:101f60008a9fbe00e00f5000e08f5800e00f59003c
:101f7000e08f59000c003d006044b8006055b80087
:101f80000000540081805c0002015d0083815d00df
:101f9000180020001500070008003d001800070089
:101fa0000004eb00050037000004eb000f00070001
:101fb00002003d001200070018002000dcff0700af
:101fc0000800e000060032006022b8006033b8006c
:101fd0000000520081805a0002015b0083815b0097
:101fe0004f05be004f04be0000000600e00f520087
:101ff000e08f5a00e00f5b00e08f5b0000000600fe
:102000006044b8006055b8000402540085825c004a
:1020100006035d0087835d0000000600889fbe0008
:102020008a9fbe008c1f7800e00f5000e08f5800a0
:10203000e00f5900e08f59000d003d006044b800ea
:102040006055b8000000540081805c0002015d0012
:1020500083815d001c0020000820e10009a8e10048
:102060000ab0e1000bb8e1000d003d0008003700a8
:102070000006eb00e00f5200e08f5a00e00f5b001b
:10208000e08f5b0006003d006044b8006055b8007a
:102090000402540085825c0006035d0087835d00b6
:1020a000aaff07000c00e000060032006022b80022
:1020b0006033b8000000520081805a0002015b00ca
:1020c00083815b004f0678004f05be004f04be00c1
:1020d000000006006200fa00889fbe008a1f780098
:1020e00000057800810478000204780083007800fd
:1020f00080f92f000f004000bcfd07009a979f0059
:10210000a9979f000000eb00b09f9f001885fb007f
:102110008a04fb000a05ea004f55de005002200049
:10212000808f54000d003200e10f55000b003a0083
:102130000a017800880078002f9097009f919700ff
:1021400003000100a0979f000000e0008e00320015
:102150003f9897000000e800b09f9f000a044400e9
:1021600050022000808f5400040032000900e0007b
:10217000e6ff3a003f989700840037000000eb002c
:10218000909f9f00809f9f00f0979f00e0979f0087
:10219000d0979f00c0979f0007003700418d200017
:1021a0000100500000004000818c20006100780098
:1021b000df98970001007000d09f9f00880478008e
:1021c00009047800384578008a00fb00408d200023
:1021d00038fb07000000e000f0ff3a00a1c2b300a6
:1021e000814f55000e003a00cf8897000180e9002a
:1021f000c08f9f0010007800c09f9f000000e0008b
:1022000005003d000000ea00c09f9f005f98970016
:102210000020a000d09f9f000904e8000f003700b5
:10222000c09f9f000000eb0005003700f2ff270071
:10223000820f5000020032006a01b90002804000a3
:102240000904780088047800b900fb000103b1009c
:10225000e98f5000f5ff3600c09f9f00e0c2b30039
:10226000984f1000020032000080eb001900370088
:10227000a0c2b300d84f100007003a00cf889700e3
:102280000180e900c08f9f0010007800a09f9f0090
:102290000804e800100037000000eb00a09f9f003a
:1022a0008800780005003700f3ff2700830f5000f7
:1022b000020032006a02b900040041000104780003
:1022c000880078003101fb000203b100e90f5100e2
:1022d000f5ff3600a09f9f00984478008900fb001e
:1022e000008c2000f3fa07000000e000020032003a
:1022f0000804e800010037008044eb00c97f9f001c
:1023000080c6b30080cf540004003a0098cf140078
:102310000a003a006640500006003700c0c6b3000d
:1023200080cf540005003a0098cf140003003a0013
:1023300065404000c07f9f000804e8001801fb00d2
:10234000e3fb2f008f81410081f92f008f80400037
:10235000a0f92f000f004000100007000000e0006f
:1023600009003a00e1fb2f008f804000a0f92f0008
:102370000f00400061fc07000000e0000200350093
:102380000804e80061ff37000080eb004f0578008b
:102390004f04be000080fa0000000600889fbe00c7
:1023a0008a1f780000047800e0c6b300804f510017
:1023b000c100320015003c006b405000804f5100be
:1023c000240032000a003c0070405000804f510051
:1023d000fa00320065404000804f51006800320032
:1023e00050c2b300804f51000b013a000701370083
:1023f00040c6b300804f51001b00320065404000d2
:10240000804f510004013a001700370030c7b30075
:10241000804f5100e900320007003c00644050004a
:10242000804f5100560032000040e800804f5100bc
:10243000f9003a00d300370050c7b300804f510075
:102440004f00320063404000804f5100f2003a00dc
:102450004b0037001181e900820878007800900075
:1024600012417800ea00370028609000c4c6b3002b
:10247000844f500007003a001102780064005200b7
:10248000800878001002be004fabde0086037800a3
:102490001100370014c7b300844f5000030032000e
:1024a000a4c6b300844f500006003a001102780021
:1024b00068005200800878003002be002003be0091
:1024c000050037001180e9008008780010027800cc
:1024d000cfa2de00612bb900049cbe000694be00b2
:1024e0002860900081c6b300814f50000d0032007b
:1024f00021c6b300814f500004003a000402fb00e3
:10250000cfa2de00612bb9000800370041c7b3003d
:10251000814f500003003200e6c04000814f500060
:1025200004003a00cfa2de00612bb900049cbe007b
:102530000694be003802be002803be00780090005a
:10254000d1c2b300e00f5200e08f5a00e00f5b00f1
:10255000e08f5b0008003500881090000118a30090
:1025600002003200b1c2b300030037000108a3002b
:102570004c00320001c2b30081717800470037007f
:1025800028609000c4c6b300844f500006003a0093
:102590001102780064005200800878001002be002a
:1025a0006033b8001100370014c7b300844f5000e7
:1025b00003003200a4c6b300844f500006003a0066
:1025c0001102780068005200800878003002be00d6
:1025d0002003be00050037001180e9008008780064
:1025e000100278008002eb006033b800049cbe004b
:1025f0000694be002860900081c6b300814f500051
:102600000d00320021c6b300814f500004003a0093
:102610000482fb008002eb006033b8000800370042
:1026200041c7b300814f500003003200e6c04000b4
:10263000814f500004003a008002eb006033b80084
:10264000049cbe000694be00081090000038a30051
:10265000140032003802be002803be00e00f520012
:10266000e08f5a00e00f5b00e08f5b000d0032004e
:1026700080c7b300804f51000300320080c5b30013
:10268000804f510007003a007800900001c3b3006a
:10269000817178000000e800827178000000e80095
:1026a00070049800780090008081410063049800d5
:1026b000824078003e00370028619000c3c6b30016
:1026c0001180e900834f5100220032000a003c00d3
:1026d000e4c15100834f51002500320083c1e8005e
:1026e000834f510013003200e8c15100834f510065
:1026f0001e003a000a00370043c7b300834f510061
:102700001b003200e6c14100834f51001800320027
:10271000e9c15100834f510014003a000500370011
:102720008008780010007800485c90000848780025
:10273000410037008008780010007800680a900097
:10274000cfa2de00612bb9000498be000690be0047
:102750003900370080087800100078006809900080
:10276000cf91de000288be00330037001180e900ff
:102770008008780010007800680c90000808780045
:102780002d0037001180e9008008780010027800e1
:10279000cfa2de00612bb900049cbe000694be00ef
:1027a00078009000808141006304980081c7b300e5
:1027b0000800780022fa07001f0037001180e900a6
:1027c00080087800100578006a049800d80c900002
:1027d0000900e00004003d000a007800c1f907008c
:1027e0008004780007003700090178008000eb00c2
:1027f0000a0078009ef907000000e00001003200a6
:102800008a045000190c98000b00370078009000e3
:1028100082717800060037007800900080814100c6
:102820000204e00001003a0052c2b300824978007d
:102830000000e800700498000000eb004f057800ed
:082840004f04be000000060079
:020000040000fa
:10284800434f00004e460000494700005552000023
:1028580041430000494f00004e0000000a0a0000f2
:102868000a420000696500006e760000656e00008f
:10287800696400006f2000006120000050690000ba
:10288800747300002e200000507200006573000071
:10289800696f00006e6500003a0a00000930000008
:1028a8002e50000061720000612000007365000076
:1028b80067750000697200002072000075740000de
:1028c800612000006f20000072650000736f000037
:1028d8006c76000065720000207000006f720000c6
:1028e800206100006c6700006f72000069740000ce
:1028f8006d6f00002e2000000a090000312e000034
:102908005061000072610000206300006f6e0000db
:10291800666900006775000072610000722000009f
:10292800766500006c6f0000636900006461000058
:1029380064650000732e0000200a000009320000c0
:102948002e5000006172000061200000636f0000db
:102958006e66000069670000757200006172000011
:10296800206500006c2000006661000063740000b0
:102978006f72000020640000652000006d75000083
:102988006c740000697000006c69000063610000ed
:10299800636900006f6e00002e0a00000933000012
:1029a8002e5000006172000061200000636f00007b
:1029b8006e660000696700007572000061720000b1
:1029c800206c000061200000727500007461000036
:1029d8002061000020730000656700007569000031
:1029e800722e0000200a0000093400002e5000005a
:1029f800617200006120000076650000722000000e
:102a08006c610000206300006f6e000066690000c2
:102a18006775000072610000636900006f6e000056
:102a28002061000063740000756100006c2e0000d6
:102a3800200a0000093500002e50000061720000d5
:102a480061200000736100006c69000072200000c2
:102a5800646500002070000069740000730a0000bb
:102a68000a09000000500000726500007369000048
:102a78006f6e0000653a00000a090000412e000050
:102a8800506100007261000020730000656700005b
:102a98007569000072200000727500007461000002
:102aa8002e2000000a090000422e0000506100009c
:102ab8007261000020720000657300006f6c0000f6
:102ac8007665000072200000706f00007220000020
:102ad8006c61000062650000726900006e7400009d
:102ae8006f0a0000090000000a090000496e000092
:102af80067720000657300006520000064610000d3
:102b0800746f0000206300006f720000726500009f
:102b1800637400006f0a00000900000052450000bd
:102b28004355000045520000444100003a2000008f
:102b38007061000073610000726100007320000082
:102b48004d500000454900000a0000000a09000035
:102b58000961000063610000626500002e0000004a
:102b68000a0a00004c610000207500006c74000027
:102b7800696d000061200000766500006c6f000040
:102b88006369000064610000642000006d6f00004c
:102b98006469000066690000636100006461000008
:102ba8002c2000007365000072610000206c00009a
:102bb80061200000736500006c650000636300001d
:102bc800696f00006e61000064610000000a000087
:102bd8000a090000507500006c73000065200000b1
:102be800312c0000322c0000332000006f20000040
:102bf8003420000070610000726100002063000052
:102c0800616d00006269000061720000206c0000c4
:102c18006173000020760000656c00006f6300009f
:102c28006964000061640000657300002079000099
:102c3800206500006e7400006572000020700000be
:102c48006172000061200000736100006c6900007f
:102c580072200000646500002065000073740000a5
:102c6800652000006d6500006e7500002e000000f4
:102c78000a0a0000696e00006772000065730000b0
:102c88006520000064610000746f0000206300008c
:102c98006f72000072650000637400006f0000002e
:102ca8000a0a000009090000566500006c6f000060
:102cb800636900006461000064200000313a00008c
:102cc800000a00000a09000009560000656c0000af
:102cd8006f63000069640000616400002032000036
:102ce8003a0000000a0a00000909000056650000c1
:102cf8006c6f0000636900006461000064200000dc
:102d0800333a0000000a00000a09000009560000d2
:102d1800656c00006f630000696400006164000076
:102d2800203400003a0000000a0a000009000000f0
:102d38000a0a000009560000656c00006f63000075
:102d48006964000061640000206500006c65000093
:102d580067690000646100003a20000056650000c1
:102d68006c6f00006369000064610000642000006b
:102d780025630000000a00000a09000056650000eb
:102d88006c6f00006369000064610000642000004b
:102d9800313a00002025000063250000632500006b
:102da800630a00000a090000566500006c6f000005
:102db800636900006461000064200000323a00008a
:102dc800202500006325000063250000630a000039
:102dd8000a090000566500006c6f00006369000076
:102de8006461000064200000333a000020250000e0
:102df8006325000063250000630a00000a0900003b
:102e0800566500006c6f0000636900006461000093
:102e180064200000343a00002025000063250000eb
:102e280063250000630000000a0a00000952000040
:102e38007574000061200000656c00006567000083
:102e480069640000610a00000a3a0000000a0000f4
:102e58000966000061630000746f0000723a0000a8
:102e680000200000312e000030000000203000005b
:102e78002e250000630000000a0a00000945000032
:102e88006c2000006c61000062650000726900003f
:102e98006e7400006f20000073650000207200004f
:102ea800657300006f6c00007665000072610000b9
:102eb800207000006f72000020720000757400001e
:102ec800610000000a0a0000094500006c200000ab
:102ed8006c61000062650000726900006e74000099
:102ee8006f20000073650000207200006573000009
:102ef8006f6c0000766500007261000020700000b1
:102f08006f720000206100006c6700006f720000a3
:102f1800697400006d6f0000000a00000949000094
:102f28006e67000072650000736500002065000090
:102f38006c20000066610000637400006f7200007e
:102f4800206d0000756c000074690000706c000052
:102f58006963000061740000697600006f28000052
:102f6800302d000041290000000a00000949000036
:102f78006e6700007265000073650000207600002f
:102f8800616c00006f720000206300006f72000027
:102f980072650000637400006f0000006173000038
:082fa8006461000073000000e9
:020000040000fa
:102fb0007401fa000040eb00104798000040eb005d
:102fc000004f78000040eb00704798000040eb0095
:102fd0002047980090c1b3003047980020c3b30049
:102fe00040479800b0c4b300504798000040eb0041
:102ff000604798000040eb00004f780099050700fb
:10300000b0050700cd010700d8010700b30607008f
:10301000907f240001002000af0b070000c4b30024
:1030200018070700680047000204200041422900f9
:1030300057f60700080037001e80fb00000047001d
:1030400000489000db060700907f2400010020006c
:10305000a10b07001e4fe8001e80fb000000470088
:10306000004890000004e000f3ff3a000040eb004d
:10307000004f78000040eb00704798002043290083
:10308000801f78009bf607008f87e900d07d26001f
:1030900011002000900b070096003700a5050700df
:1030a00000e8b70000c8bf000080fb00210320003b
:1030b000810f50005400320021032000810f500086
:1030c00007003c0001032000810f50000e00320079
:1030d00011032000810f5000480032007f003700ac
:1030e00041032000810f50005100320041032000b5
:1030f000810f50004700350051032000810f500020
:1031000050003200750037008460a9008c60a80070
:1031100070532900801f780076f607008f87e9003a
:10312000907f2400010020006b0b070000000000ce
:1031300070108000610060000000e000fcff3200c1
:103140007c05070000e8b70001802000914078006e
:1031500010c4b30080cf50000a003a0000c8bf007e
:10316000004178008000eb0070c5b300e506070061
:103170000040eb001047980010c0b3007047980063
:103180005c003700018020009140780020c4b3002b
:1031900080cf50000a003a0000c8bf00004178000c
:1031a0008000eb0070c5b300d606070010c0b30066
:1031b0001047980010c0b300704798004d003700ca
:1031c000018020009140780010c4b30080cf5000ef
:1031d00045003200018020009140780020c4b300f7
:1031e00080cf50004200320080572900801f7800b5
:1031f00040f607008f87e900c5ff370067004700ea
:10320000860107003b003700670047008e05070076
:1032100038003700e7004700800420000e0040001f
:103220005902070040c3b30000e8b700310037007f
:10323000e7004700800420000e00400077030700ed
:103240002c00370060be2200a1022000220b0700e4
:10325000000000008c60a9008460a90005e1a900bd
:1032600000c4b3008706070000c5b300510607007d
:1032700090c4b3004f06070030c5b3004d060700e9
:1032800040c5b3004b06070010c4b3004906070051
:1032900000c2b3004706070000c2b300450607009e
:1032a00000c2b3004306070000c2b3004106070096
:1032b00000c2b3003f06070000c2b3003d0607008e
:1032c00000c2b3003b06070000c2b3003906070086
:1032d000a10907002c0a0700100037002059290017
:1032e000a0f50700030037000000000001003700d0
:1032f000000000007e4090000004e00067ff320004
:103300008c60a8008460a900907f24000100200048
:10331000f10a070057ff37003d07070041168000fc
:1033200000042000008060000000e000faff32008e
:1033300011c8bf000200200003f8230007050700a2
:1033400060be2200a1022000e30a0700050037004a
:1033500000000000030037000000000001003700fb
:10336000000000008000eb0070c5b300a406070059
:1033700011c4b300814f500008003a00002620001d
:10338000f6070700c1e1a900a05a2900801f7800b4
:10339000d8f507008f87e900faff3700d0168000c4
:1033a000700060000000e000cf0032004016800096
:1033b000640060000000e0000d0032004016800054
:1033c000610060000000e00009003200401680004b
:1033d000620060000000e0000500320040f72900b4
:1033e00051002000bc0a07009d080700bd003700ff
:1033f00040168000640060000000e0000d00320014
:1034000040168000610060000000e000090032000a
:1034100040168000620060000000e00005003a00f5
:1034200040f7290051002000ab0a070048080700b8
:10343000ac00370040168000640060000000e0002f
:103440003000320040168000610060000000e000a3
:103450002c003a0040168000620060000000e0008e
:103460002800320040f72900510020009a0a070086
:10347000c1e1a900c881a800c8a1a800c801a9008d
:10348000c821a900c1e1a80000c4b300fd050700e0
:1034900040c4b300c705070050c4b300c50507000a
:1034a000c0c4b300c305070010c4b300c1050700c2
:1034b000e0c4b300bf05070040c5b300bd05070069
:1034c00050c4b300bb05070002003700970807008f
:1034d000cf060700d0168000700060000000e000fa
:1034e000faff320011c8bf000200200003f82300d9
:1034f0009a04070080ee2300b1002000760a07003e
:103500007800370040168000640060000000e00092
:103510003000320040168000610060000000e000d2
:103520002c003a0040168000620060000000e000bd
:1035300028003a0040f7290051002000660a0700e1
:10354000c1e1a900c881a800c8a1a800c801a900bc
:10355000c821a900c1e1a80000c4b300c905070043
:1035600040c4b3009305070050c4b30091050700a1
:10357000c0c4b3008f05070010c4b3008d05070059
:10358000e0c4b3008b05070040c5b3008905070000
:1035900050c4b30087050700020037006308070026
:1035a0009b060700d0168000700060000000e0005d
:1035b000faff320011c8bf000200200003f8230008
:1035c0006604070080ee2300b1002000420a0700d5
:1035d0004400370040168000640060000000e000f6
:1035e0000d003a0040168000610060000000e0001d
:1035f0000900320040168000620060000000e00018
:103600000500320040f7290051002000320a07006f
:10361000f1070700330037004016800064006000a7
:103620000000e0000d003a004016800061006000dc
:103630000000e000090032004016800062006000d7
:103640000000e00005003a0040f72900510020008a
:10365000210a0700e007070022003700401680001b
:10366000640060000000e0000d003a004016800099
:10367000610060000000e00009003a004016800090
:10368000620060000000e0000500320040f7290001
:1036900051002000100a0700cf0707001100370073
:1036a00040168000640060000000e00028ff3a003f
:1036b00040168000610060000000e00026ff3a0034
:1036c00040168000620060000000e00024ff3a0025
:1036d00040f7290051002000ff090700be0707003e
:1036e00020ff37001fff370000c4b3006505070047
:1036f00010c4b3002f050700c0c4b3002d05070098
:1037000070c4b3002b05070000c2b30029050700f1
:1037100000c2b3002705070000c2b300250507005b
:1037200000c2b3002305070000c2b3002105070053
:10373000fe070700360607000aff37000000fa0000
:10374000f00020002010880007a2a9000742a9006d
:103750000762a90007e2a800907f24000100200072
:10376000dd0907000080fa00000006000000fa00f2
:1037700000002400a00488000421ef00210880003c
:10378000f0fc2f00008060000040a00020088800ae
:103790000080eb00100888000021ef008460a90081
:1037a0008c60a80005e1a8000080fa000000060077
:1037b0000000fa008040eb000040eb00f20507003b
:1037c00011c1b30010c0b300ef05070021c2b30060
:1037d00020c0b300ec05070011c0b30030c0b30037
:1037e000e905070001c2b30040c0b300e6050700c9
:1037f00051c0b30050c0b300e305070091c1b3004e
:1038000060c0b300e005070001c8b3000040eb0052
:10381000dd0507000080fa00000006000400fa0041
:1038200010079800405b2900801f7800b1f4070062
:103830008f87e90003003700000000000100370017
:10384000000000000040eb0010479800b05e290027
:10385000801f7800a7f407008f87e900b5030700f1
:10386000004f780010c3b3009e40780080cf500016
:103870001500320020c3b3009e40780080cf500076
:103880001100320030c3b3009e40780080cf50005a
:103890000d00320040c3b3009e40780080cf50003e
:1038a000090032001e407800ed4f50000600320043
:1038b000c0632900801f78008ef407008f87e9001d
:1038c00010c0b300104798001e409000e14f500018
:1038d000d9ff32001e407800ed4f500005003a003d
:1038e0001e00900011c0b300014878000080fa006b
:1038f0000000060010c3b3009e40780080cf500047
:1039000025003a0040652900801f780079f40700ff
:103910008f87e90087030700004f78001e41780079
:103920001100200070c5b300f60407001e80fb00e4
:103930000af407007f030700004f78001e4178005b
:103940002100200070c5b300ee0407001e80fb00bc
:1039500002f4070077030700004f78001e4178004b
:103960003100200070c5b300e60407001e80fb0094
:10397000faf3070040d42100c101200056090700d6
:103980000040eb00004f780012c3b300e1002000bc
:1039900070c5b300db04070020c3b3009e4078006d
:1039a00080cf500025003a0050662900801f780023
:1039b00050f407008f87e9005e030700004f78008e
:1039c0001e4178004100200070c5b300cd040700ff
:1039d0001e80fb00e1f3070056030700004f78004c
:1039e0001e4178005100200070c5b300c5040700d7
:1039f0001e80fb00d9f307004e030700004f78003c
:103a00001e4178006100200070c5b300bd040700ae
:103a10001e80fb00d1f3070040d42100c10120002b
:103a20002d0907000040eb00004f780022c3b300cf
:103a3000e100200070c5b300b204070030c3b3003a
:103a40009e40780080cf500025003a006067290032
:103a5000801f780027f407008f87e90035030700ef
:103a6000004f78001e4178007100200070c5b3003f
:103a7000a40407001e80fb00b8f307002d03070015
:103a8000004f78001e4178008100200070c5b3000f
:103a90009c0407001e80fb00b0f30700250307000d
:103aa000004f78001e4178009100200070c5b300df
:103ab000940407001e80fb00a8f3070040d42100f7
:103ac000c1012000040907000040eb00004f78000e
:103ad00032c3b300e100200070c5b30089040700c1
:103ae00040c3b3009e40780080cf500054ff3a009e
:103af00070682900801f7800fef307008f87e900b7
:103b00000c030700004f78001e417800a100200040
:103b100070c5b3007b0407001e80fb008ff3070015
:103b200004030700004f78001e417800b100200018
:103b300070c5b300730407001e80fb0087f3070005
:103b4000fc020700004f78001e417800c1002000f1
:103b500070c5b3006b0407001e80fb007ff30700f5
:103b600040d42100c1012000db0807000040eb0029
:103b7000004f780042c3b300e100200070c5b300dd
:103b8000600407002fff37000a00fa003007980092
:103b9000410798000000eb00000f78000000eb00e8
:103ba0001007980080692900801f7800d1f3070072
:103bb0008f87e90000c2b30000e8b70008003700b3
:103bc000be0090001e009000008040008040eb008e
:103bd000014878001e0090000000e80010079800df
:103be0009e009000b0122000808f5000f4ff36003d
:103bf0000000eb00100798009a0037004e4090003c
:103c0000c00207000100370000000000c9020700e1
:103c100040479800ce409000c0c4b30080cf500011
:103c200004003200ce409000c0c6b30080cf5000e8
:103c300005003a003e0090001e004000c1c4b300e1
:103c4000014878007b003700ce40900020c5b300cb
:103c500080cf500004003200ce40900020c7b30057
:103c600080cf500005003a003e0090001e0040004a
:103c700021c5b300014878006e003700ce409000a7
:103c800060c4b30080cf500004003200ce409000ea
:103c900060c6b30080cf500005003a003e0090009f
:103ca0001e00400061c4b300014878006100370085
:103cb000ce40900020c4b30080cf500004003200fa
:103cc000ce40900020c6b30080cf500005003a00df
:103cd0003e0090001e00400021c4b300014878005f
:103ce00054003700ce40900030c5b30080cf500064
:103cf00004003200ce40900030c7b30080cf5000a7
:103d00000f003a008c60a9003e0090001e004000a9
:103d100031c5b30001487800c03f220001002000f7
:103d20006d0807004e409000760207004e0090009c
:103d300011c0b300014878008c60a8003d00370036
:103d4000ce409000d0c2b30080cf500005003a00b2
:103d50003e0090001e004000d1c2b3000148780030
:103d600034003700ce409000f0c5b30080cf500043
:103d700005003a003e0090001e004000f1c5b3006f
:103d8000014878002b0037004e409000ed4f500066
:103d900004003a004e00900011c0b30001487800c2
:103da00024003700ce409000c0c4b30080cf500044
:103db00020003200ce409000c0c6b30080cf50003b
:103dc0001c003200ce40900020c5b30080cf5000d0
:103dd00018003200ce40900020c7b30080cf5000c2
:103de00014003200ce40900060c4b30080cf500079
:103df00010003200ce40900060c6b30080cf50006b
:103e00000c003200ce40900020c4b30080cf5000a0
:103e100008003200ce40900020c6b30080cf500092
:103e200004003200ce40900000c2b30080cf5000aa
:103e300075ff3a00d07d26001100200026080700fb
:103e40000f02a9001e0fe800c01220009e0078009b
:103e5000808f500003003a004e00900011c0b30064
:103e6000014878004e009000104078000004e00007
:103e700062ff32008c60a900907f240001002000c6
:103e8000150807000002eb00e3c1b3003e019000fb
:103e90000126200070c5b300b2030700907f240004
:103ea000010020000c080700e4012000e3c1b3007a
:103eb0003e0190000128200070c5b300a90307004f
:103ec000907f24000100200003080700c4032000a5
:103ed000e3c1b3003e019000012a200070c5b30089
:103ee000a0030700907f240001002000fa070700cc
:103ef000a4052000e3c1b3003e019000012c200086
:103f000070c5b30097030700907f240001002000d4
:103f1000f107070084072000e3c1b3003e019000d1
:103f2000012e200070c5b3008e030700907f24008f
:103f300001002000e807070064092000e3c1b30086
:103f40003e0190000130200070c5b30085030700da
:103f5000907f240001002000df070700440b2000b1
:103f6000e3c1b3003e0190000132200070c5b300f0
:103f70007c030700907f240001002000d607070083
:103f8000240d2000e3c1b3003e0190000134200065
:103f900070c5b30073030700907f24000100200068
:103fa000cd070700040f2000e3c1b3003e019000dd
:103fb0000136200070c5b3006a030700907f24001b
:103fc00001002000c4070700e4102000e3c1b30093
:103fd0003e0190000138200070c5b3006103070066
:103fe000a0fb2c0021002000bb0707008c60a9006b
:103ff000907f240001002000b70707008460a9001b
:104000008000eb0070c5b3007d03070000e8b70037
:104010008c60a8000080fa00000006001000fa0082
:10402000889fbe008a9fbe008c9fbe00100798002c
:10403000210798000000eb00000f78000100370016
:10404000000000008c60a900e100200070c5b300f2
:104050006b0307000080fb00801f7800c069290007
:10406000801f78008df20700e4875700c100200010
:1040700070c5b300620307000080fb0030079800a2
:10408000b100200070c5b3005d0307000080fb0095
:1040900040079800a100200070c5b3005803070036
:1040a0000080fb00500798009100200070c5b3000d
:1040b000530307000080fb00600798008100200088
:1040c00070c5b3004e0307000080fb007007980026
:1040d0007100200070c5b300490307008086fb0013
:1040e0006100200070c5b300450307000086fb0097
:1040f0005100200070c5b300410307008085fb001c
:104100004100200070c5b3003d0307000085fb009f
:104110003100200070c5b300390307008084fb0024
:104120002100200070c5b300350307000084fb00a8
:104130001100200070c5b300310307000080fb00b0
:10414000be009000811f7800ce009000811f780093
:10415000de009000811f7800ee009000811f780043
:10416000fe009000811f78008d1f78008c1f780062
:104170008b1f78008a1f7800891f7800881f7800bd
:10418000801f7800f06b2900801f780043f2070041
:10419000fa87570080712900801f78003ff20700de
:1041a0008f87e9000000eb00000f78000b0037005c
:1041b000012620001e8040008000780070c5b300fa
:1041c0000f0307000080fb00e4f10700907f24004c
:1041d00001002000400707001e0fe8000126200014
:1041e0001e8040008000780070c5b3000403070003
:1041f0000004e000030032001e007800fd0f5000b4
:10420000ebff34000000eb00000f78000b003700dc
:10421000012820001e8040008000780070c5b30097
:10422000f70207000080fb00ccf10700907f24001c
:1042300001002000280707001e0fe80001282000c9
:104240001e8040008000780070c5b300ec020700bb
:104250000004e000030032001e007800fd0f500053
:10426000ebff34000000eb00000f78000b0037007c
:10427000012a20001e8040008000780070c5b30035
:10428000df0207000080fb00b4f10700907f2400ec
:1042900001002000100707001e0fe800012a20007f
:1042a0001e8040008000780070c5b300d402070073
:1042b0000004e000030032001e007800fd0f5000f3
:1042c000ebff34000000eb00000f78000b0037001c
:1042d000012c20001e8040008000780070c5b300d3
:1042e000c70207000080fb009cf10700907f2400bc
:1042f00001002000f80607001e0fe800012c200036
:104300001e8040008000780070c5b300bc0207002a
:104310000004e000030032001e007800fd0f500092
:10432000ebff34000000eb00000f78000b003700bb
:10433000012e20001e8040008000780070c5b30070
:10434000af0207000080fb0084f10700907f24008b
:1043500001002000e00607001e0fe800012e2000eb
:104360001e8040008000780070c5b300a4020700e2
:104370000004e000030032001e007800fd0f500032
:10438000ebff34000000eb00000f78000b0037005b
:10439000013020001e8040008000780070c5b3000e
:1043a000970207000080fb006cf10700907f24005b
:1043b00001002000c80607001e0fe80001302000a1
:1043c0001e8040008000780070c5b3008c0207009a
:1043d0000004e000030032001e007800fd0f5000d2
:1043e000ebff34000000eb00000f78000b003700fb
:1043f000013220001e8040008000780070c5b300ac
:104400007f0207000080fb0054f10700907f24002a
:1044100001002000b00607001e0fe8000132200056
:104420001e8040008000780070c5b3007402070051
:104430000004e000030032001e007800fd0f500071
:10444000ebff34000000eb00000f78000b0037009a
:10445000013420001e8040008000780070c5b30049
:10446000670207000080fb003cf10700907f2400fa
:1044700001002000980607001e0fe800013420000c
:104480001e8040008000780070c5b3005c02070009
:104490000004e000030032001e007800fd0f500011
:1044a000ebff34000000eb00000f78000b0037003a
:1044b000013620001e8040008000780070c5b300e7
:1044c0004f0207000080fb0024f10700907f2400ca
:1044d00001002000800607001e0fe80001362000c2
:1044e0001e8040008000780070c5b30044020700c1
:1044f0000004e000030032001e007800fd0f5000b1
:10450000ebff34000000eb00000f78000b003700d9
:10451000013820001e8040008000780070c5b30084
:10452000370207000080fb000cf10700907f240099
:1045300001002000680607001e0fe8000138200077
:104540001e8040008000780070c5b3002c02070078
:104550000004e000030032001e007800fd0f500050
:10456000ebff34000000eb00000f7800b072290070
:10457000801f780049f107008f87e900d1002000f3
:1045800070c5b3001e02070011c4b300814f500074
:1045900005003a0050732900801f78003ff10700a2
:1045a0008f87e90009003700d100200070c5b300f3
:1045b000130207000080fb00801f7800a073290011
:1045c000801f780035f10700e48757008000eb007a
:1045d00070c5b3000a02070011c4b300814f500038
:1045e00004003a0000742900801f78002bf10700b6
:1045f0008f87e9008000eb0070c5b3000002070060
:1046000021c4b300814f500004003a0060762900b5
:10461000801f780021f107008f87e900701080006b
:10462000610060000000e00003003a008c60a80018
:104630004000070000e8b70000c8bf00ed4f500081
:104640007ffe3a002e00900011c0b30001487800b0
:104650004f06be004f05be004f04be000080fa00aa
:10466000000006000000fa000080eb004015880002
:10467000d802a900d822a900d842a900d862a9006e
:10468000c602a800c622a800c642a800c662a800aa
:10469000c682a800c6a2a800c6c2a800c6e2a8009a
:1046a000c702a8000080eb00f0168800de42a800d8
:1046b000de62a800cda2a800cdc2a8000080fa004a
:1046c000000006000000fa00b0002000a0108800e2
:1046d0008520a9008540a9000c22ef000e22ef00e2
:1046e0000d42a80071108000f0f32f0000806000e0
:1046f000701088000de2a8000f42a8000080fa00a8
:10470000000006000200fa00004f780000000000e0
:104710007110800000102000008060000000e000a8
:10472000fbff32001e80fb00801088000080fa0032
:10473000000006000000fa00000000007010800079
:10474000610060000000e000fcff3200901080007b
:10475000004078000080fa00000006000600fa0021
:10476000004f78001207980023079800c1e1a900c4
:10477000010e8000c0ff2f0000806000000e880046
:10478000c3e1a900010e800030ff2f00008060000f
:10479000000e8800ca01a90040ef2700200e880003
:1047a0009e80fb00a02820000088b900000078004f
:1047b000b00e88009e80fb00a02820000088b90071
:1047c00000007800c00e8800c901a800c921a80017
:1047d000c8a1a800c881a800c801a900c821a900d3
:1047e000c1e1a8000080fa00000006000000fa0005
:1047f0000f003700501680004800de006140600066
:1048000000c0ea00614060000080fb0061006000c1
:104810004800dd00511680000180a10001007000f9
:104820005016880040f7290051002000aa05070013
:10483000d0168000700060000000e000edff320044
:104840000080fa00000006000400fa00100798003b
:1048500001003700000000000040eb00004f78002e
:1048600010792900801f78008cf007008f87e900fd
:10487000b0ff0700104798009e40900000c3b300af
:1048800080cf5000310032009e40900010c3b30032
:1048900080cf50002d0032009e40900020c3b30016
:1048a00080cf5000290032009e40900030c3b300fa
:1048b00080cf5000250032009e40900040c3b300de
:1048c00080cf5000210032009e40900050c3b300c2
:1048d00080cf50001d0032009e40900060c3b300a6
:1048e00080cf5000190032009e40900070c3b3008a
:1048f00080cf5000150032009e40900080c3b3006e
:1049000080cf5000110032009e40900090c3b30051
:1049100080cf50000d0032009e40900010c4b300c4
:1049200080cf500009003200907b2900801f780062
:104930005af007008f87e900a0fb2c00210020001f
:104940006505070010c0b300004f78001e407800d6
:10495000e14f5000bfff32001e40900069ff07008a
:104960001e419000d100200070c5b300e500070093
:104970001e00900011c0b300014878000080fa00ca
:10498000000006000000fa0085c0a9000602a80089
:10499000000000002104800000002400008060006e
:1049a0000000e000fbff32000080fa00000006007b
:1049b0000000fa0085c0a9000622a800000000003f
:1049c0002104800000002400008060000000e0005e
:1049d000fbff32000080fa00000006000000fa0031
:1049e00085c0a9000642a800000000002104800044
:1049f00000002400008060000000e000fbff3200a7
:104a00000080fa00000006000200fa00004f780063
:104a100085c0a9001e80fb00101088000000000067
:104a20002104800000002400008060000000e000fd
:104a3000fbff3200401080004f00de000040780095
:104a40000080fa00000006000000fa0085c0a900fe
:104a50000662a8000000000021048000000024007d
:104a6000008060000000e000fbff320000108000ca
:104a7000004078000080fa00000006000000fa0004
:104a800085c0a90006a2a8000682a80000000000b8
:104a90002104800000002400008060000000e0008d
:104aa000fbff32000080fa00000006000000fa0060
:104ab00085c0a90006a2a9000682a8000000000087
:104ac0002104800000002400008060000000e0005d
:104ad000fbff32000080fa00000006000000fa0030
:104ae00020c0b30014000700800b2000010020004c
:104af000f904070080c2b3000f000700800b2000fc
:104b000001002000f4040700c0c0b3000a00070041
:104b1000800b200001002000ef04070000c8b30054
:104b20000500070050e6200001002000ea0407000d
:104b30000080fa00000006000400fa0020479800f8
:104b40002e4090000080fb004400dd00004f780004
:104b5000ae40900000cfb30000c060001047980046
:104b600088ff0700e0c4b300a7ff07001e409000c5
:104b7000c040b300a4ff07001e4090000034a00016
:104b8000a1ff07009e4078006cc070009eff0700e8
:104b90001e4078000034a0009bff07008fff070035
:104ba00050e6200001002000cb0407000080fa003e
:104bb000000006000400fa00204798002e409000f4
:104bc0000080fb004400dd00004f7800ae40900004
:104bd00000cfb30000c060001047980069ff0700d5
:104be000e0c4b30088ff07001e409000d040b3002f
:104bf00085ff07001e4090009040b30082ff070031
:104c00009e4078006dc070007fff07009e407800d6
:104c100069c070007cff070070ff070050e62000ad
:104c200001002000ac0407000080fa00000006002c
:104c30000000fa0053ff0700e0c4b30072ff070052
:104c4000c0c0b30070ff070080c0b3006eff070054
:104c5000c0c1b3006cff070050e620000100200037
:104c60009d04070080c1b30067ff07005bff0700da
:104c700050e6200001002000970407000080fa00a1
:104c8000000006000400fa0020479800ae409000a3
:104c9000400020000008dd00004f7800ae4090008a
:104ca00000cfb30000c06000104798009e40900005
:104cb00000c8b30000c040001047980031ff070053
:104cc000e0c4b30050ff07001e409000c040b30096
:104cd0004dff07001e4090000034a0004aff07006f
:104ce0009e4078006cc0700047ff07001e407800af
:104cf0000034a00044ff070038ff07000080fa00de
:104d0000000006000a00fa004047980031079800aa
:104d1000024f98003e0090004800de00004f7800ef
:104d20003e0090001047980016ff07004e4090008c
:104d300000404000204798002e40900032ff0700be
:104d40001e40780030ff07001e4090002eff070035
:104d50000e4890002cff070020ff07000080fa009b
:104d6000000006000e00fa00404798003107980046
:104d700042079800234f9800640798000000eb005a
:104d8000000f78000000eb0010079800ee00900084
:104d900011079800c03f2200010020004e040700c8
:104da00011003700ce0090001e00900000804000ef
:104db000904078003e0090001e00400001417800c5
:104dc000800078004e409000ceff0700907f2400c6
:104dd00001002000400407001e0fe8001e009000a4
:104de0000000e800100798002e4890000080fb00ab
:104df0009e0f5000ebff3e000080fa00000006000e
:104e00000800fa0040479800310798003e009000e3
:104e10004800de00004f78003e00900010479800e8
:104e2000d8fe07004e409000004040002047980008
:104e30002e409000f4fe07001e407800f2fe0700ae
:104e40001e409000f0fe0700d9fe07002e409000a3
:104e50000040e800204798002e409000eafe07003e
:104e6000907f2400010020001b040700f6fe0700cd
:104e70003047980001ff0700d8fe07003e40900031
:104e80000080fa00000006000c00fa00881f78007d
:104e9000404798003107980042079800234f980038
:104ea0000040eb00004f78003e0090004800de001c
:104eb000104798003e00900020479800b1fe070080
:104ec0004e40900000404000304798003e40900027
:104ed000cdfe07001e409000cbfe07002e40900044
:104ee000c9fe0700b2fe07003e4090000040e80007
:104ef000304798003e409000c3fe0700907f24009a
:104f000001002000f40307001e80fb00ce0090008b
:104f100000844000ccfe0700004c78001e4fe800e3
:104f2000907f240001002000eb0307000a003700f7
:104f3000defe07001e80fb00ce00900000844000d3
:104f4000c1fe0700004c7800907f24000100200083
:104f5000e10307001e4fe8002e4890009e407800b5
:104f600080cf5000f2ff39002073200001002000a4
:104f7000d9030700c1fe070098fe07004f04780020
:104f80000080fa00000006000200fa00004f7800de
:104f9000114798007bfe070000cdb3009afe070082
:104fa0001e40780098fe07001e40900096fe070005
:104fb0008afe07001e4090000080fa0000000600f4
:104fc0000400fa00204798006efe070000cdb300f1
:104fd0008dfe07002e4090008bfe070074fe070038
:104fe00010cdb30088fe0700705921000100200099
:104ff000b903070094fe0700004f78009ffe0700ea
:1050000076fe07001e4078000080fa0000000600cf
:105010000000fa000040eb001aff070020c0b300b8
:10502000e7ff070008e8b70008c8bf000080fb00e2
:105030004400de000040780008e8b70008c8bf0060
:105040000043b00008e8b70050e62000010020004f
:10505000a103070008c8bf00d6fe070020c0b300a8
:10506000d7ff070007e8b70007c8bf006f40600020
:1050700007e8b70007c8bf000043b00007e8b70063
:1050800050e62000010020009303070007c8bf007e
:10509000c8fe0700a0c3b300c6fe070010c0b300df
:1050a000c7ff070006e8b70006c8bf000080fb0086
:1050b0004400de000040780006e8b70006c8bf00e4
:1050c0000043b00006e8b70050e6200001002000d1
:1050d0008103070006c8bf00b6fe070010c0b3007a
:1050e000b7ff070005e8b70005c8bf006f406000c4
:1050f00005e8b70005c8bf000043b00005e8b700e9
:1051000050e62000010020007303070005c8bf001f
:10511000a8fe0700a0c3b300a6fe07000040eb00f6
:10512000a7ff070004e8b70004c8bf000080fb0029
:105130004400de000040780004e8b70004c8bf0067
:105140000043b00004e8b70050e620000100200052
:105150006103070004c8bf0096fe07000040eb0093
:1051600097ff070003e8b70003c8bf006f40600067
:1051700003e8b70003c8bf000043b00003e8b7006e
:1051800050e62000010020005303070003c8bf00c1
:1051900088fe070040c0b30089ff07000ae8b70097
:1051a0000ac8bf000080fb004400de000040780019
:1051b0000ae8b7000ac8bf000043b0000ae8b70019
:1051c00050e6200001002000430307000ac8bf008a
:1051d00078fe070040c0b30079ff070009e8b70078
:1051e00009c8bf006f40600009e8b70009c8bf00e8
:1051f0000043b00009e8b70050e62000010020009d
:105200003503070009c8bf006afe0700f0c2b300fb
:1052100068fe070050c0b30069ff07000ce8b70044
:105220000cc8bf000080fb004400de000040780096
:105230000ce8b7000cc8bf000043b0000ce8b70092
:1052400050e6200001002000230307000cc8bf0027
:1052500058fe070050c0b30059ff07000be8b70025
:105260000bc8bf006f4060000be8b7000bc8bf0061
:105270000043b0000be8b70050e62000010020001a
:10528000150307000bc8bf004afe0700f0c2b300b9
:1052900048fe070060c0b30049ff07000ee8b700f2
:1052a0000ec8bf000080fb004400de000040780014
:1052b0000ee8b7000ec8bf000043b0000ee8b7000c
:1052c00050e6200001002000030307000ec8bf00c5
:1052d00038fe070060c0b30039ff07000de8b700d3
:1052e0000dc8bf006f4060000de8b7000dc8bf00db
:1052f0000043b0000de8b70050e620000100200098
:10530000f50207000dc8bf002afe07000080fa0062
:10531000000006000000fa009afd0700e0c4b30098
:10532000b9fd0700c0c1b300b7fd070080c1b300dd
:10533000b5fd0700c0c8b300b3fd070080c8b300c7
:10534000b1fd0700a5fd0700907f240001002000ab
:10535000e10207000080fa00000006000400fa00e5
:10536000100798000000eb00000f78006500370080
:105370001e0090001e0040008000780070c5b30041
:105380009ffe0700c1c4b300814f500001003a00e6
:10539000910007001e0090001e0040008000780071
:1053a00070c5b30096fe070021c5b300814f5000c1
:1053b00001003a00660007001e0090001e00400039
:1053c0008000780070c5b3008dfe070061c4b30093
:1053d000814f500027003a00c1e1a900c881a80010
:1053e000c8a1a800c801a900c821a900c1e1a8005e
:1053f00080ee2300b1002000b702070000c4b30014
:1054000020fe070040c4b300eafd070050c4b3000b
:10541000e8fd0700c0c4b300e6fd070010c4b300f8
:10542000e4fd0700e0c4b300e2fd070040c5b3009f
:10543000e0fd070050c4b300defd070002003700a6
:10544000ba000700f2fe0700d0168000700060006e
:105450000000e000faff320011c8bf000200200087
:1054600003f82300bdfc070080ee2300b1002000fc
:10547000990207001e0090001e0040008000780086
:1054800070c5b3005efe070021c4b300814f500019
:1054900001003a00720007001e0090001e0040004c
:1054a0008000780070c5b30055fe070031c5b30019
:1054b000814f500012003a00c1e1a90000c4b300be
:1054c000f0fd070030c5b300bafd070040c5b300ca
:1054d000b8fd0700f0c4b300b6fd070000c5b30077
:1054e000b4fd070000c2b300b2fd070000c2b30064
:1054f000b0fd070000c2b300aefd0700ffff37009c
:105500001e0fe8001e0090001e0040008000780082
:1055100070c5b3003afe07000004e000030032004b
:105520001e007800fd0f500091ff3600207d2900fd
:10553000801f780059ed07008f87e900907f2400d5
:1055400001002000640207000080fa00000006004d
:105550000000fa00c1e1a900c881a900c8a1a80003
:10556000c801a800c821a900c1e1a80000c4b30077
:10557000c4fd070040c4b3008efd070050c4b30053
:105580008cfd070020c5b3008afd070000c2b300f0
:1055900088fd070000c2b30086fd070000c2b3000b
:1055a00084fd070000c2b30082fd07000100370040
:1055b00097fe0700d0168000700060000000e00039
:1055c000fbff320080ee2300b10020004202070002
:1055d0000080fa00000006000000fa00c1e1a90006
:1055e000c881a800c8a1a900c801a900c821a800b5
:1055f000c1e1a80000c4b300a2fd070090c4b3003d
:105600006cfd0700a0c5b3006afd070010c5b3001c
:1056100068fd070000c2b30066fd070000c2b300ca
:1056200064fd070000c2b30062fd070000c2b300c2
:1056300060fd07000100370075fe0700d0168000ee
:10564000700060000000e000fbff320080ee2300ed
:10565000b1002000200207000080fa0000000600d0
:105660000000fa00c1e1a900c881a800c8a1a900f2
:10567000c801a900c821a800c1e1a80000c4b30066
:1056800080fd070010c4b3004afd070040c5b30009
:1056900048fd070020c5b30046fd070010c4b30055
:1056a00044fd070030c5b30042fd070000c2b3004f
:1056b00040fd070000c2b3003efd070000c2b3007a
:1056c0003cfd070000c2b3003afd070000c2b30072
:1056d00038fd070000c2b30036fd070001003700a7
:1056e0004bfe0700d0168000700060000000e00054
:1056f000fbff320080ee2300b1002000f60107001e
:105700000100370042fe0700d016800070006000e4
:105710000000e000fbff320080ee2300b10020001b
:10572000ed0107000080fa00000006000000fa000a
:1057300040168000700060000000e0002900320088
:105740004116800000022000008060000000e000a0
